:020000040000FA
:0400000015EF00F008
:06000800078297EF00F0F3
:100018000780E0CF05F0F29EF28E05C0E0FF079062
:100028001000B7EF00F0730ED36E939093929394F1
:1000380093969398000E8A6E0B0ED76EFA0ED66EB4
:10004800820ED56ED08EF28AF184F28EF28C010483
:100058000210D8A432EF00F034EF00F02BEF00F0DC
:100068008AB039EF00F03CEF00F0010E3DEF00F0F0
:10007800000EFF0A066E8A500618FE0B06188A6ED6
:100088008AB249EF00F04CEF00F0010E4DEF00F09E
:10009800000EFF0A066E06468A500618FD0B061863
:1000A8008A6E8AB45AEF00F05DEF00F0010E5EEF41
:1000B80000F0000EFF0A066E064606468A5006182D
:1000C800FB0B06188A6E8AB66CEF00F06FEF00F033
:1000D800010E70EF00F0000EFF0A066E0646064697
:1000E80006468A500618F70B06188A6E8AB87FEFFC
:1000F80000F082EF00F0010E83EF00F0000EFF0A1F
:10010800066E063A8A500618EF0B06188A6E030E1A
:10011800046EE80E036E000E026E000E016E2BEFE9
:1001280000F015EF00F0F2A49CEF00F09EEF00F055
:10013800B5EF00F003500410D8B4A5EF00F0A7EF16
:1001480000F0ACEF00F00306D8A00406B5EF00F00D
:10015800000E026E010E016E0B0ED76EFA0ED66EF1
:10016800F29407921100940EF66E010EF76E000ECF
:10017800F86E0900F5CF03F00900F5CF04F0026A24
:0E018800016A07900792000117EF00F0E803EC
:020000040020DA
:08000000FFFFFFFFFFFFFFFF00
:020000040030CA
:0E000000FFC80D3E3C9D81FF0FC00FE00F407A
:00000001FF
